S00B00004144432E7372656351
S11300000C942A000C943C000C943C000C943C008E
S11300100C943C000C943C000C943C000C943C006C
S11300200C943C000C943C000C943C000C943C005C
S11300300C943C000C943C000C943C000C943C004C
S11300400C943C000C943C000C943C000C943C003C
S11300500C943C0011241FBECFE5D8E0DEBFCDBF19
S113006020E0A0E6B0E001C01D92A236B207E1F79D
S11300700E94B0000C94D6000C940000806487B9F0
S1130080369A349BFECF84B195B10895CF93DF9314
S1130090AC019C013695279536952795369527957D
S11300A0A5ECB0E20E94C700EC01D295C295CF70D6
S11300B0CD27DF70CD2728EE33E0C29FC001C39F58
S11300C0900DD29F900D1124481B590B9A0136951F
S11300D0279536952795ABE7B4E10E94C700FC014C
S11300E0F695E79524E62E9FC0012F9F900D1124CD
S11300F0481B590B9A01ADECBCEC0E94C7009695C5
S1130100879596958795969587959C01220F331F21
S1130110880F991F880F991F880F991F820F931FAB
S11301209A01281B390BC901B901660F771F220FE9
S1130130331F220F331F220F331F260F371F421B7B
S1130140530B421B530B30E1839F400D112448BBDA
S113015080E1C89FE00D1124E5BBDF91CF910895A4
S113016085E886B980E487B98FEF87BB84BB80E0DC
S11301700E943E0090936100809360000E944600BC
S113018087EA91E60197F1F700C00000F0CFA29F43
S1130190B001B39FC001A39F700D811D1124911D57
S11301A0B29F700D811D1124911D0895F894FFCF05
S9030000FC
