S00C00006D61696E2E7372656373
S11300000C942A000C9434000C9434000C943400A6
S11300100C9434000C9434000C9434000C9434008C
S11300200C9434000C9434000C9434000C9434007C
S11300300C9434000C9434000C9434000C9434006C
S11300400C9434000C9434000C9434000C9434005C
S11300500C94340011241FBECFE5D8E0DEBFCDBF21
S11300600E943A000C944F000C9400005D9BFECF5C
S11300708CB9089510BC88E089B91BB896E890BD86
S11300808AB9C0E28C2F0E94360087EA91E6019774
S1130090F1F700C00000CF5FC038A1F7F2CFF894A9
S10500A0FFCF8C
S9030000FC
