:100000000C942A000C943C000C943C000C943C0092
:100010000C943C000C943C000C943C000C943C0070
:100020000C943C000C943C000C943C000C943C0060
:100030000C943C000C944C000C943C000C943C0040
:100040000C943C000C943C000C943C000C943C0040
:100050000C943C0011241FBECFE5D8E0DEBFCDBF1D
:1000600020E0A0E6B0E001C01D92A136B207E1F7A2
:100070000E9442000C9475000C9400005D9BFECF22
:100080008CB9089510BC88E089B91BB886E880BD9A
:1000900088E98AB97894FFCF1F920F920FB60F921A
:1000A00011242F933F934F935F936F937F938F937D
:1000B0009F93AF93BF93EF93FF938CB180936000B6
:1000C000809160000E943E00FF91EF91BF91AF913F
:1000D0009F918F917F916F915F914F913F912F9160
:0E00E0000F900FBE0F901F901895F894FFCF51
:00000001FF
