S0130000436F6E74726F6C5F4C45442E73726563FC
S11300000C942A000C9447000C9447000C9447006D
S11300100C9447000C9447000C9447000C94470040
S11300200C9447000C9447000C9447000C94470030
S11300300C9447000C946D000C9447000C944700FA
S11300400C9447000C9447000C9447000C94470010
S11300500C94470011241FBECFE5D8E0DEBFCDBF0E
S113006010E0A0E6B0E0EEE3F1E002C005900D92EE
S1130070A236B107D9F720E0A2E6B0E001C01D9294
S1130080A336B207E1F70E944D000C949D000C9436
S113009000005D9BFECF8CB9089510BC88E089B93F
S11300A08FEF87BB1BB886E880BD88E98AB978944E
S11300B096B3809160009817D9F386B30E944900E3
S11300C02FE986E891E0215080409040E1F700C09C
S11300D0000086B380936000EBCF1F920F920FB69F
S11300E00F9211242F933F934F935F936F937F93BA
S11300F08F939F93AF93BF93EF93FF938CB18093B0
S1130100620080916200803821F486B30E94490025
S113011003C08091620088BBFF91EF91BF91AF91C2
S11301209F918F917F916F915F914F913F912F910B
S11101300F900FBE0F901F901895F894FFCFFC
S105013E80003B
S9030000FC
