S0170000536572766F436F6E74726F6C6C65722E73726563DA
S113000012C037C054C017C016C015C014C013C0E6
S113001012C011C010C00FC00EC00DC00CC00BC068
S11300200AC009C008C011241FBECFE5D4E0DEBF5A
S1130030CDBF02D05AC0E4CF8FEF87BB18BA85B7C3
S11300408A6085BF8BB7806C8BBF8FB5826A8FBD8A
S11300508EB589618EBD88EE93E09BBD8ABD8CED23
S113006095E099BD88BD80E29EE497BD86BD7894F5
S1130070FFCF1F920F920FB60F9211242F938F93DD
S11300809F938AB59BB5883E934029F48CED95E007
S11300909BBD8ABD04C088EE93E09BBD8ABD9F9141
S11300A08F912F910F900FBE0F901F9018951F9254
S11300B00F920FB60F9211242F938F939F9388B5AD
S11300C099B58C3D954029F480ED97E099BD88BDA4
S11300D004C08CED95E099BD88BD9F918F912F91BF
S11100E00F900FBE0F901F901895F894FFCF4D
S9030000FC
