:1000000012C019C018C017C016C015C014C013C044
:1000100020C011C010C00FC00EC00DC00CC00BC05E
:100020000AC009C008C011241FBECFE5D4E0DEBF5E
:10003000CDBF02D024C0E4CF8FEF87BB18BA83E0D6
:100040008EBD86EF92EC9DBD8CBD84E089BF789417
:10005000FFCF1F920F920FB60F9211248F939F9391
:1000600086EF92EC9DBD8CBD98B381E0892788BB5B
:100070009F918F910F900FBE0F901F901895F8943D
:02008000FFCFB0
:00000001FF
