:100000000C942A000C9447000C9447000C94470071
:100010000C9447000C9447000C9447000C94470044
:100020000C9447000C9447000C9447000C94470034
:100030000C9447000C9447000C9447000C94470024
:100040000C9447000C9447000C9447000C94470014
:100050000C94470011241FBECFE5D8E0DEBFCDBF12
:1000600010E0A0E6B0E0E0E6F1E002C005900D92FD
:10007000A436B107D9F720E0A4E6B0E001C01D9294
:10008000A436B207E1F70E946B000C94AE000C940A
:10009000000087B3806A87BBC69A87ED8DB987B3A6
:1000A000876087BB88B3876088BB089548B321E029
:1000B00030E0F90102C0EE0FFF1F8A95E2F7CF0191
:1000C0002E2F2095422348BB6FB9779BFECF98B364
:1000D000892B88BB08950E94490087EA91E6019721
:1000E000F1F700C00000C0E6D0E000E510EA68814A
:1000F00081E0860F888380E00E94560088818135E8
:1001000008F0188283EC99E00197F1F700C0000035
:10011000698181E0860F898381E00E945600898190
:10012000813A08F0088383EC99E00197F1F700C069
:100130000000688181E0860F888380E00E9456007D
:100140008A81813F08F01A839FE926E881E0915077
:1001500020408040E1F700C00000C9CFF894FFCFF5
:040160000050A000AB
:00000001FF
