:1000000012C037C050C01FC01EC01DC01CC01BC0C6
:100010001AC019C018C017C016C015C014C013C02C
:1000200012C011C010C011241FBECFE5D4E0DEBF46
:10003000CDBF20E0A0E6B0E001C01D92A136B2071E
:10004000E1F702D04BC0DCCF11BA8FEF82BB87BB88
:1000500095B79A6095BF9BB7906C9BBF789484BB13
:1000600020E63AEE85B38F5F85BBC9010197F1F7B2
:10007000F9CF1F920F920FB60F9211248F93809198
:1000800060008F5F80936000809160008A3014F080
:10009000109260008091600088BB8F910F900FBE1E
:1000A0000F901F9018951F920F920FB60F92112468
:1000B0008F938091600081508093600080916000F8
:1000C00088231CF489E0809360008091600088BBE5
:1000D0008F910F900FBE0F901F901895F894FFCF3F
:00000001FF
