:100000000C942A000C943C000C943C000C943C0092
:100010000C943C000C943C000C943C000C943C0070
:100020000C943C000C943C000C943C000C943C0060
:100030000C943C000C943C000C943C000C943C0050
:100040000C943C000C943C000C943C000C943C0040
:100050000C943C0011241FBECFE5D4E0DEBFCDBF21
:1000600020E0A0E6B0E001C01D92A236B207E1F7A1
:100070000E943E000C945F000C94000081E084BB61
:1000800089B38130E9F38BE081BD21E014C0A895EC
:10009000809160009091610001969093610080933F
:1000A00060008035934C39F485B3822785BB10926C
:1000B00061001092600089B3882349F3FFCFF89460
:0200C000FFCF70
:00000001FF
