:100000000C942A000C943C000C943C000C943C0092
:100010000C943C000C943C000C943C000C943C0070
:100020000C943C000C943C000C943C000C943C0060
:100030000C943C000C944A000C943C000C943C0042
:100040000C943C000C943C000C943C000C943C0040
:100050000C943C0011241FBECFE5D8E0DEBFCDBF1D
:1000600020E0A0E6B0E001C01D92A136B207E1F7A2
:100070000E943E000C945C000C94000010BC88E0D0
:1000800089B98FEF87BB1BB886E880BD88E98AB93C
:100090007894FFCF1F920F920FB60F9211248F9377
:1000A0008CB1809360008091600088BB8F910F902D
:0C00B0000FBE0F901F901895F894FFCF22
:00000001FF
